{
  "contractName": "RushBank",
  "abi": [
    {
      "inputs": [
        {
          "internalType": "contract RushToken",
          "name": "_token",
          "type": "address"
        }
      ],
      "stateMutability": "nonpayable",
      "type": "constructor"
    },
    {
      "inputs": [],
      "name": "maxMintAmount",
      "outputs": [
        {
          "internalType": "uint256",
          "name": "",
          "type": "uint256"
        }
      ],
      "stateMutability": "view",
      "type": "function"
    },
    {
      "inputs": [],
      "name": "mintAmount",
      "outputs": [
        {
          "internalType": "uint256",
          "name": "",
          "type": "uint256"
        }
      ],
      "stateMutability": "view",
      "type": "function"
    },
    {
      "inputs": [],
      "name": "deposit",
      "outputs": [],
      "stateMutability": "payable",
      "type": "function"
    },
    {
      "inputs": [
        {
          "internalType": "address",
          "name": "_to",
          "type": "address"
        }
      ],
      "name": "mintToken",
      "outputs": [],
      "stateMutability": "nonpayable",
      "type": "function"
    },
    {
      "inputs": [
        {
          "internalType": "uint256",
          "name": "_mintAmount",
          "type": "uint256"
        }
      ],
      "name": "changeMintAmount",
      "outputs": [],
      "stateMutability": "nonpayable",
      "type": "function"
    },
    {
      "inputs": [
        {
          "internalType": "uint256",
          "name": "_maxMintAmount",
          "type": "uint256"
        }
      ],
      "name": "changeMaxMintAmount",
      "outputs": [],
      "stateMutability": "nonpayable",
      "type": "function"
    }
  ],
  "bytecode": "0x608060405234801561001057600080fd5b50604051610aed380380610aed833981810160405281019061003291906100ff565b61271060018190555061c350600281905550806000806101000a81548173ffffffffffffffffffffffffffffffffffffffff021916908373ffffffffffffffffffffffffffffffffffffffff1602179055505061012c565b600080fd5b600073ffffffffffffffffffffffffffffffffffffffff82169050919050565b60006100ba8261008f565b9050919050565b60006100cc826100af565b9050919050565b6100dc816100c1565b81146100e757600080fd5b50565b6000815190506100f9816100d3565b92915050565b6000602082840312156101155761011461008a565b5b6000610123848285016100ea565b91505092915050565b6109b28061013b6000396000f3fe6080604052600436106100555760003560e01c806301173a741461005a578063239c70ae146100835780635356d4cd146100ae5780635a2bcc18146100d75780637d5092c914610102578063d0e30db01461012b575b600080fd5b34801561006657600080fd5b50610081600480360381019061007c91906105de565b610135565b005b34801561008f57600080fd5b50610098610316565b6040516100a59190610624565b60405180910390f35b3480156100ba57600080fd5b506100d560048036038101906100d0919061066b565b61031c565b005b3480156100e357600080fd5b506100ec610422565b6040516100f99190610624565b60405180910390f35b34801561010e57600080fd5b506101296004803603810190610124919061066b565b610428565b005b61013361052e565b005b80600073ffffffffffffffffffffffffffffffffffffffff168173ffffffffffffffffffffffffffffffffffffffff16036101a5576040517f08c379a000000000000000000000000000000000000000000000000000000000815260040161019c906106f5565b60405180910390fd5b60025460008054906101000a900473ffffffffffffffffffffffffffffffffffffffff1673ffffffffffffffffffffffffffffffffffffffff166370a08231846040518263ffffffff1660e01b81526004016102019190610724565b602060405180830381865afa15801561021e573d6000803e3d6000fd5b505050506040513d601f19601f820116820180604052508101906102429190610754565b1115610283576040517f08c379a000000000000000000000000000000000000000000000000000000000815260040161027a906107f3565b60405180910390fd5b60008054906101000a900473ffffffffffffffffffffffffffffffffffffffff1673ffffffffffffffffffffffffffffffffffffffff166340c10f19836001546040518363ffffffff1660e01b81526004016102e0929190610813565b600060405180830381600087803b1580156102fa57600080fd5b505af115801561030e573d6000803e3d6000fd5b505050505050565b60025481565b60008054906101000a900473ffffffffffffffffffffffffffffffffffffffff1673ffffffffffffffffffffffffffffffffffffffff16638da5cb5b6040518163ffffffff1660e01b8152600401602060405180830381865afa158015610387573d6000803e3d6000fd5b505050506040513d601f19601f820116820180604052508101906103ab9190610851565b73ffffffffffffffffffffffffffffffffffffffff163373ffffffffffffffffffffffffffffffffffffffff1614610418576040517f08c379a000000000000000000000000000000000000000000000000000000000815260040161040f906108ca565b60405180910390fd5b8060028190555050565b60015481565b60008054906101000a900473ffffffffffffffffffffffffffffffffffffffff1673ffffffffffffffffffffffffffffffffffffffff16638da5cb5b6040518163ffffffff1660e01b8152600401602060405180830381865afa158015610493573d6000803e3d6000fd5b505050506040513d601f19601f820116820180604052508101906104b79190610851565b73ffffffffffffffffffffffffffffffffffffffff163373ffffffffffffffffffffffffffffffffffffffff1614610524576040517f08c379a000000000000000000000000000000000000000000000000000000000815260040161051b906108ca565b60405180910390fd5b8060018190555050565b67016345785d8a0000341015610579576040517f08c379a00000000000000000000000000000000000000000000000000000000081526004016105709061095c565b60405180910390fd5b565b600080fd5b600073ffffffffffffffffffffffffffffffffffffffff82169050919050565b60006105ab82610580565b9050919050565b6105bb816105a0565b81146105c657600080fd5b50565b6000813590506105d8816105b2565b92915050565b6000602082840312156105f4576105f361057b565b5b6000610602848285016105c9565b91505092915050565b6000819050919050565b61061e8161060b565b82525050565b60006020820190506106396000830184610615565b92915050565b6106488161060b565b811461065357600080fd5b50565b6000813590506106658161063f565b92915050565b6000602082840312156106815761068061057b565b5b600061068f84828501610656565b91505092915050565b600082825260208201905092915050565b7f41646472657373206973206e6f742076616c69642e0000000000000000000000600082015250565b60006106df601583610698565b91506106ea826106a9565b602082019050919050565b6000602082019050818103600083015261070e816106d2565b9050919050565b61071e816105a0565b82525050565b60006020820190506107396000830184610715565b92915050565b60008151905061074e8161063f565b92915050565b60006020828403121561076a5761076961057b565b5b60006107788482850161073f565b91505092915050565b7f4572726f722c206d6178696d756d206d696e7420616d6f756e7420697320657860008201527f6365656465642e00000000000000000000000000000000000000000000000000602082015250565b60006107dd602783610698565b91506107e882610781565b604082019050919050565b6000602082019050818103600083015261080c816107d0565b9050919050565b60006040820190506108286000830185610715565b6108356020830184610615565b9392505050565b60008151905061084b816105b2565b92915050565b6000602082840312156108675761086661057b565b5b60006108758482850161083c565b91505092915050565b7f4f6e6c79206f776e65722063616e2063616c6c20746869732e00000000000000600082015250565b60006108b4601983610698565b91506108bf8261087e565b602082019050919050565b600060208201905081810360008301526108e3816108a7565b9050919050565b7f4572726f722c206465706f736974206d757374206265203e3d20302e3031204560008201527f5448000000000000000000000000000000000000000000000000000000000000602082015250565b6000610946602283610698565b9150610951826108ea565b604082019050919050565b6000602082019050818103600083015261097581610939565b905091905056fea26469706673582212208d064d874afb7cdfd2b6f155ff820a29760ef92b63fb81075a77dad1627b078364736f6c634300080f0033",
  "immutableReferences": {},
  "source": "// SPDX-License-Identifier: MIT\npragma solidity ^0.8.13;\n\nimport \"./RushToken.sol\";\n\ncontract RushBank {\n\n  modifier onlyTokenOwner() {\n    require(msg.sender == token.owner(), \"Only owner can call this.\");\n\n    _;\n  }\n\n  modifier validAddress(address _addr) {\n    require(_addr != address(0), \"Address is not valid.\");\n    _;\n  }\n  \n  RushToken private token;\n\n  uint public mintAmount;\n  uint public maxMintAmount;\n\n\n  constructor(RushToken _token) {\n    mintAmount = 10000;\n    maxMintAmount = 50000;\n    token = _token;\n  }\n  function deposit() payable public {\n    require(msg.value >= 0.1 ether, 'Error, deposit must be >= 0.01 ETH');\n\n\n  }\n  function mintToken(address _to) public validAddress(_to) {\n    require(token.balanceOf(_to) <= maxMintAmount, 'Error, maximum mint amount is exceeded.');\n    token.mint(_to, mintAmount);\n  }\n\n  function changeMintAmount(uint _mintAmount) onlyTokenOwner public {\n    mintAmount = _mintAmount;\n  }\n\n  function changeMaxMintAmount(uint _maxMintAmount) onlyTokenOwner public {\n    maxMintAmount = _maxMintAmount;\n  }\n\n}",
  "sourcePath": "/Users/onur/Desktop/token-bank/contracts/RushBank.sol",
  "compiler": {
    "name": "solc",
    "version": "0.8.15+commit.e14f2714.Emscripten.clang"
  },
  "schemaVersion": "3.4.8",
  "updatedAt": "2022-07-28T13:43:09.565Z",
  "devdoc": {
    "kind": "dev",
    "methods": {},
    "version": 1
  },
  "userdoc": {
    "kind": "user",
    "methods": {},
    "version": 1
  }
}