{
  "contractName": "RushStake",
  "abi": [
    {
      "inputs": [
        {
          "internalType": "address",
          "name": "_tokenInterface",
          "type": "address"
        }
      ],
      "stateMutability": "nonpayable",
      "type": "constructor"
    },
    {
      "inputs": [
        {
          "internalType": "address",
          "name": "",
          "type": "address"
        }
      ],
      "name": "addressToTotalStakedAmount",
      "outputs": [
        {
          "internalType": "uint256",
          "name": "",
          "type": "uint256"
        }
      ],
      "stateMutability": "view",
      "type": "function",
      "constant": true
    },
    {
      "inputs": [],
      "name": "owner",
      "outputs": [
        {
          "internalType": "address",
          "name": "",
          "type": "address"
        }
      ],
      "stateMutability": "view",
      "type": "function",
      "constant": true
    },
    {
      "inputs": [],
      "name": "rewardRatePerBlock",
      "outputs": [
        {
          "internalType": "uint256",
          "name": "",
          "type": "uint256"
        }
      ],
      "stateMutability": "view",
      "type": "function",
      "constant": true
    },
    {
      "inputs": [
        {
          "internalType": "uint256",
          "name": "_amount",
          "type": "uint256"
        }
      ],
      "name": "stake",
      "outputs": [],
      "stateMutability": "nonpayable",
      "type": "function"
    },
    {
      "inputs": [],
      "name": "unstake",
      "outputs": [],
      "stateMutability": "nonpayable",
      "type": "function"
    },
    {
      "inputs": [
        {
          "internalType": "address",
          "name": "_to",
          "type": "address"
        }
      ],
      "name": "mintToken",
      "outputs": [],
      "stateMutability": "nonpayable",
      "type": "function"
    },
    {
      "inputs": [
        {
          "internalType": "address",
          "name": "_staker",
          "type": "address"
        }
      ],
      "name": "totalUnclaimedRewards",
      "outputs": [
        {
          "internalType": "uint256",
          "name": "",
          "type": "uint256"
        }
      ],
      "stateMutability": "view",
      "type": "function",
      "constant": true
    },
    {
      "inputs": [],
      "name": "getCurrentBlock",
      "outputs": [
        {
          "internalType": "uint256",
          "name": "",
          "type": "uint256"
        }
      ],
      "stateMutability": "view",
      "type": "function",
      "constant": true
    },
    {
      "inputs": [],
      "name": "getMintAmount",
      "outputs": [
        {
          "internalType": "uint256",
          "name": "",
          "type": "uint256"
        }
      ],
      "stateMutability": "view",
      "type": "function",
      "constant": true
    },
    {
      "inputs": [
        {
          "internalType": "uint256",
          "name": "_mintAmount",
          "type": "uint256"
        }
      ],
      "name": "setMintAmount",
      "outputs": [],
      "stateMutability": "nonpayable",
      "type": "function"
    }
  ],
  "bytecode": "0x60806040523480156200001157600080fd5b50604051620012df380380620012df83398181016040528101906200003791906200013c565b336000806101000a81548173ffffffffffffffffffffffffffffffffffffffff021916908373ffffffffffffffffffffffffffffffffffffffff16021790555080600260006101000a81548173ffffffffffffffffffffffffffffffffffffffff021916908373ffffffffffffffffffffffffffffffffffffffff1602179055506019600181905550633b9aca00600381905550506200016e565b600080fd5b600073ffffffffffffffffffffffffffffffffffffffff82169050919050565b60006200010482620000d7565b9050919050565b6200011681620000f7565b81146200012257600080fd5b50565b60008151905062000136816200010b565b92915050565b600060208284031215620001555762000154620000d2565b5b6000620001658482850162000125565b91505092915050565b611161806200017e6000396000f3fe608060405234801561001057600080fd5b506004361061009e5760003560e01c806390870492116100665780639087049214610135578063a694fc3a14610153578063a8995deb1461016f578063c7cd997f1461018d578063e94631d2146101a95761009e565b806301173a74146100a35780632def6620146100bf5780634ac3270a146100c9578063672d5d3b146100f95780638da5cb5b14610117575b600080fd5b6100bd60048036038101906100b89190610b6f565b6101d9565b005b6100c761026d565b005b6100e360048036038101906100de9190610b6f565b610547565b6040516100f09190610bb5565b60405180910390f35b61010161055f565b60405161010e9190610bb5565b60405180910390f35b61011f610567565b60405161012c9190610bdf565b60405180910390f35b61013d61058b565b60405161014a9190610bb5565b60405180910390f35b61016d60048036038101906101689190610c26565b610591565b005b610177610874565b6040516101849190610bb5565b60405180910390f35b6101a760048036038101906101a29190610c26565b61087e565b005b6101c360048036038101906101be9190610b6f565b610916565b6040516101d09190610bb5565b60405180910390f35b600260009054906101000a900473ffffffffffffffffffffffffffffffffffffffff1673ffffffffffffffffffffffffffffffffffffffff166340c10f19826003546040518363ffffffff1660e01b8152600401610238929190610c53565b600060405180830381600087803b15801561025257600080fd5b505af1158015610266573d6000803e3d6000fd5b5050505050565b6000600460003373ffffffffffffffffffffffffffffffffffffffff1673ffffffffffffffffffffffffffffffffffffffff16815260200190815260200160002054116102ef576040517f08c379a00000000000000000000000000000000000000000000000000000000081526004016102e690610cd9565b60405180910390fd5b60006102fa33610916565b1161033a576040517f08c379a000000000000000000000000000000000000000000000000000000000815260040161033190610d45565b60405180910390fd5b600260009054906101000a900473ffffffffffffffffffffffffffffffffffffffff1673ffffffffffffffffffffffffffffffffffffffff1663a9059cbb33600460003373ffffffffffffffffffffffffffffffffffffffff1673ffffffffffffffffffffffffffffffffffffffff168152602001908152602001600020546040518363ffffffff1660e01b81526004016103d6929190610c53565b6020604051808303816000875af11580156103f5573d6000803e3d6000fd5b505050506040513d601f19601f820116820180604052508101906104199190610d9d565b50600061042533610916565b9050600260009054906101000a900473ffffffffffffffffffffffffffffffffffffffff1673ffffffffffffffffffffffffffffffffffffffff166340c10f1933836040518363ffffffff1660e01b8152600401610484929190610c53565b600060405180830381600087803b15801561049e57600080fd5b505af11580156104b2573d6000803e3d6000fd5b50505050600460003373ffffffffffffffffffffffffffffffffffffffff1673ffffffffffffffffffffffffffffffffffffffff16815260200190815260200160002060009055600560003373ffffffffffffffffffffffffffffffffffffffff1673ffffffffffffffffffffffffffffffffffffffff16815260200190815260200160002060006105449190610a9a565b50565b60046020528060005260406000206000915090505481565b600043905090565b60008054906101000a900473ffffffffffffffffffffffffffffffffffffffff1681565b60015481565b600081116105d4576040517f08c379a00000000000000000000000000000000000000000000000000000000081526004016105cb90610e3c565b60405180910390fd5b80600260009054906101000a900473ffffffffffffffffffffffffffffffffffffffff1673ffffffffffffffffffffffffffffffffffffffff166370a08231336040518263ffffffff1660e01b81526004016106309190610bdf565b602060405180830381865afa15801561064d573d6000803e3d6000fd5b505050506040513d601f19601f820116820180604052508101906106719190610e71565b101561067c57600080fd5b600260009054906101000a900473ffffffffffffffffffffffffffffffffffffffff1673ffffffffffffffffffffffffffffffffffffffff166323b872dd3330846040518463ffffffff1660e01b81526004016106db93929190610e9e565b6020604051808303816000875af11580156106fa573d6000803e3d6000fd5b505050506040513d601f19601f8201168201806040525081019061071e9190610d9d565b5080600460003373ffffffffffffffffffffffffffffffffffffffff1673ffffffffffffffffffffffffffffffffffffffff168152602001908152602001600020600082825461076e9190610f04565b92505081905550600060405180606001604052803373ffffffffffffffffffffffffffffffffffffffff168152602001438152602001838152509050600560003373ffffffffffffffffffffffffffffffffffffffff1673ffffffffffffffffffffffffffffffffffffffff16815260200190815260200160002081908060018154018082558091505060019003906000526020600020906003020160009091909190915060008201518160000160006101000a81548173ffffffffffffffffffffffffffffffffffffffff021916908373ffffffffffffffffffffffffffffffffffffffff160217905550602082015181600101556040820151816002015550505050565b6000600354905090565b60008054906101000a900473ffffffffffffffffffffffffffffffffffffffff1673ffffffffffffffffffffffffffffffffffffffff163373ffffffffffffffffffffffffffffffffffffffff161461090c576040517f08c379a000000000000000000000000000000000000000000000000000000000815260040161090390610fa6565b60405180910390fd5b8060038190555050565b600080600090506000600560008573ffffffffffffffffffffffffffffffffffffffff1673ffffffffffffffffffffffffffffffffffffffff168152602001908152602001600020805480602002602001604051908101604052809291908181526020016000905b82821015610a1a57838290600052602060002090600302016040518060600160405290816000820160009054906101000a900473ffffffffffffffffffffffffffffffffffffffff1673ffffffffffffffffffffffffffffffffffffffff1673ffffffffffffffffffffffffffffffffffffffff168152602001600182015481526020016002820154815250508152602001906001019061097e565b50505050905060005b8151811015610a8f576064600154838381518110610a4457610a43610fc6565b5b60200260200101516020015143610a5b9190610ff5565b610a659190611029565b610a6f91906110b2565b83610a7a9190610f04565b92508080610a87906110e3565b915050610a23565b508192505050919050565b5080546000825560030290600052602060002090810190610abb9190610abe565b50565b5b80821115610b0857600080820160006101000a81549073ffffffffffffffffffffffffffffffffffffffff02191690556001820160009055600282016000905550600301610abf565b5090565b600080fd5b600073ffffffffffffffffffffffffffffffffffffffff82169050919050565b6000610b3c82610b11565b9050919050565b610b4c81610b31565b8114610b5757600080fd5b50565b600081359050610b6981610b43565b92915050565b600060208284031215610b8557610b84610b0c565b5b6000610b9384828501610b5a565b91505092915050565b6000819050919050565b610baf81610b9c565b82525050565b6000602082019050610bca6000830184610ba6565b92915050565b610bd981610b31565b82525050565b6000602082019050610bf46000830184610bd0565b92915050565b610c0381610b9c565b8114610c0e57600080fd5b50565b600081359050610c2081610bfa565b92915050565b600060208284031215610c3c57610c3b610b0c565b5b6000610c4a84828501610c11565b91505092915050565b6000604082019050610c686000830185610bd0565b610c756020830184610ba6565b9392505050565b600082825260208201905092915050565b7f5573657220686173206e6f20746f6b656e20696e207374616b65000000000000600082015250565b6000610cc3601a83610c7c565b9150610cce82610c8d565b602082019050919050565b60006020820190508181036000830152610cf281610cb6565b9050919050565b7f5573657220686173206e6f207265776172647320796574000000000000000000600082015250565b6000610d2f601783610c7c565b9150610d3a82610cf9565b602082019050919050565b60006020820190508181036000830152610d5e81610d22565b9050919050565b60008115159050919050565b610d7a81610d65565b8114610d8557600080fd5b50565b600081519050610d9781610d71565b92915050565b600060208284031215610db357610db2610b0c565b5b6000610dc184828501610d88565b91505092915050565b7f5374616b6520616d6f756e742073686f756c642062652062696767657220746860008201527f616e207a65726f2e000000000000000000000000000000000000000000000000602082015250565b6000610e26602883610c7c565b9150610e3182610dca565b604082019050919050565b60006020820190508181036000830152610e5581610e19565b9050919050565b600081519050610e6b81610bfa565b92915050565b600060208284031215610e8757610e86610b0c565b5b6000610e9584828501610e5c565b91505092915050565b6000606082019050610eb36000830186610bd0565b610ec06020830185610bd0565b610ecd6040830184610ba6565b949350505050565b7f4e487b7100000000000000000000000000000000000000000000000000000000600052601160045260246000fd5b6000610f0f82610b9c565b9150610f1a83610b9c565b9250827fffffffffffffffffffffffffffffffffffffffffffffffffffffffffffffffff03821115610f4f57610f4e610ed5565b5b828201905092915050565b7f6e6f7420617574686f72697a6564000000000000000000000000000000000000600082015250565b6000610f90600e83610c7c565b9150610f9b82610f5a565b602082019050919050565b60006020820190508181036000830152610fbf81610f83565b9050919050565b7f4e487b7100000000000000000000000000000000000000000000000000000000600052603260045260246000fd5b600061100082610b9c565b915061100b83610b9c565b92508282101561101e5761101d610ed5565b5b828203905092915050565b600061103482610b9c565b915061103f83610b9c565b9250817fffffffffffffffffffffffffffffffffffffffffffffffffffffffffffffffff048311821515161561107857611077610ed5565b5b828202905092915050565b7f4e487b7100000000000000000000000000000000000000000000000000000000600052601260045260246000fd5b60006110bd82610b9c565b91506110c883610b9c565b9250826110d8576110d7611083565b5b828204905092915050565b60006110ee82610b9c565b91507fffffffffffffffffffffffffffffffffffffffffffffffffffffffffffffffff82036111205761111f610ed5565b5b60018201905091905056fea2646970667358221220d56377190b8bcd273260b2c2547b47be957f40b48623b356f6e43ff2b2db47dd64736f6c634300080f0033",
  "immutableReferences": {},
  "source": "// SPDX-License-Identifier: MIT\npragma solidity ^0.8.13;\n\nimport \"./RushToken.sol\";\n\ncontract RushStake {\n\n    address public owner;\n\n    uint public rewardRatePerBlock;\n\n    RushToken private tokenInterface;\n\n    uint256 mintAmount;\n\n    constructor(address _tokenInterface) {\n        owner = msg.sender;\n        tokenInterface = RushToken(_tokenInterface);\n        rewardRatePerBlock = 25;\n        mintAmount = 1000000000;\n    }\n\n    struct Stake {\n        address stakeOwner;\n        uint stakeStartBlock;\n        uint stakeAmount;\n    }\n\n    mapping(address => uint) public addressToTotalStakedAmount;\n    mapping(address => Stake[]) private addressToStakes;\n\n    modifier onlyOwner() {\n        require(msg.sender == owner, \"not authorized\");\n        _;\n    }\n\n    modifier hasTokenInStake() {\n        require(addressToTotalStakedAmount[msg.sender] > 0, \"User has no token in stake\");\n        _;\n    }\n\n    modifier hasRewardsToUnstake() {\n        require(totalUnclaimedRewards(msg.sender) > 0, \"User has no rewards yet\");\n        _;\n    }\n\n    \n\n    function stake(uint _amount) external {\n        require(_amount > 0, \"Stake amount should be bigger than zero.\");\n        require(tokenInterface.balanceOf(msg.sender) >= _amount);\n        \n        tokenInterface.transferFrom(msg.sender, address(this), _amount);\n        addressToTotalStakedAmount[msg.sender] += _amount;\n        Stake memory newStake = Stake(msg.sender, block.number, _amount);\n        addressToStakes[msg.sender].push(newStake);\n    }\n\n    function unstake() external hasTokenInStake() hasRewardsToUnstake() {\n\n        tokenInterface.transfer(msg.sender, addressToTotalStakedAmount[msg.sender]);\n        uint totalRewards = totalUnclaimedRewards(msg.sender);\n        tokenInterface.mint(msg.sender, totalRewards);\n        delete addressToTotalStakedAmount[msg.sender];\n        delete addressToStakes[msg.sender];\n    }\n\n    function mintToken(address _to) public {\n        tokenInterface.mint(_to, mintAmount);\n    }\n\n\n\n    function totalUnclaimedRewards(address _staker) public view returns (uint256) {\n        uint256 unclaimedRewards = 0;\n        Stake[] memory userStakes = addressToStakes[_staker];\n        for(uint256 i = 0; i < userStakes.length; i++) {\n            unclaimedRewards += (block.number - userStakes[i].stakeStartBlock) * rewardRatePerBlock / 100 ;\n        }\n        return unclaimedRewards;\n    }\n\n    function getCurrentBlock() external view returns (uint256) {\n        return block.number;\n    }\n\n    function getMintAmount() external view returns (uint256) {\n        return mintAmount;\n    }\n\n    function setMintAmount(uint256 _mintAmount) external onlyOwner() {\n        mintAmount = _mintAmount;\n    }\n\n\n}",
  "sourcePath": "/Users/onur/Desktop/token-bank/contracts/RushStake.sol",
  "compiler": {
    "name": "solc",
    "version": "0.8.15+commit.e14f2714.Emscripten.clang"
  },
  "schemaVersion": "3.4.8",
  "updatedAt": "2022-07-29T08:44:43.687Z",
  "networkType": "ethereum",
  "devdoc": {
    "kind": "dev",
    "methods": {},
    "version": 1
  },
  "userdoc": {
    "kind": "user",
    "methods": {},
    "version": 1
  }
}