{
  "contractName": "RushToken",
  "abi": [
    {
      "inputs": [],
      "stateMutability": "nonpayable",
      "type": "constructor"
    },
    {
      "anonymous": false,
      "inputs": [
        {
          "indexed": true,
          "internalType": "address",
          "name": "owner",
          "type": "address"
        },
        {
          "indexed": true,
          "internalType": "address",
          "name": "spender",
          "type": "address"
        },
        {
          "indexed": false,
          "internalType": "uint256",
          "name": "value",
          "type": "uint256"
        }
      ],
      "name": "Approval",
      "type": "event"
    },
    {
      "anonymous": false,
      "inputs": [
        {
          "indexed": true,
          "internalType": "address",
          "name": "from",
          "type": "address"
        },
        {
          "indexed": false,
          "internalType": "address",
          "name": "to",
          "type": "address"
        }
      ],
      "name": "MinterChanged",
      "type": "event"
    },
    {
      "anonymous": false,
      "inputs": [
        {
          "indexed": true,
          "internalType": "address",
          "name": "from",
          "type": "address"
        },
        {
          "indexed": true,
          "internalType": "address",
          "name": "to",
          "type": "address"
        },
        {
          "indexed": false,
          "internalType": "uint256",
          "name": "value",
          "type": "uint256"
        }
      ],
      "name": "Transfer",
      "type": "event"
    },
    {
      "inputs": [
        {
          "internalType": "address",
          "name": "owner",
          "type": "address"
        },
        {
          "internalType": "address",
          "name": "spender",
          "type": "address"
        }
      ],
      "name": "allowance",
      "outputs": [
        {
          "internalType": "uint256",
          "name": "",
          "type": "uint256"
        }
      ],
      "stateMutability": "view",
      "type": "function",
      "constant": true
    },
    {
      "inputs": [
        {
          "internalType": "address",
          "name": "spender",
          "type": "address"
        },
        {
          "internalType": "uint256",
          "name": "amount",
          "type": "uint256"
        }
      ],
      "name": "approve",
      "outputs": [
        {
          "internalType": "bool",
          "name": "",
          "type": "bool"
        }
      ],
      "stateMutability": "nonpayable",
      "type": "function"
    },
    {
      "inputs": [
        {
          "internalType": "address",
          "name": "account",
          "type": "address"
        }
      ],
      "name": "balanceOf",
      "outputs": [
        {
          "internalType": "uint256",
          "name": "",
          "type": "uint256"
        }
      ],
      "stateMutability": "view",
      "type": "function",
      "constant": true
    },
    {
      "inputs": [],
      "name": "decimals",
      "outputs": [
        {
          "internalType": "uint8",
          "name": "",
          "type": "uint8"
        }
      ],
      "stateMutability": "view",
      "type": "function",
      "constant": true
    },
    {
      "inputs": [
        {
          "internalType": "address",
          "name": "spender",
          "type": "address"
        },
        {
          "internalType": "uint256",
          "name": "subtractedValue",
          "type": "uint256"
        }
      ],
      "name": "decreaseAllowance",
      "outputs": [
        {
          "internalType": "bool",
          "name": "",
          "type": "bool"
        }
      ],
      "stateMutability": "nonpayable",
      "type": "function"
    },
    {
      "inputs": [
        {
          "internalType": "address",
          "name": "spender",
          "type": "address"
        },
        {
          "internalType": "uint256",
          "name": "addedValue",
          "type": "uint256"
        }
      ],
      "name": "increaseAllowance",
      "outputs": [
        {
          "internalType": "bool",
          "name": "",
          "type": "bool"
        }
      ],
      "stateMutability": "nonpayable",
      "type": "function"
    },
    {
      "inputs": [],
      "name": "minter",
      "outputs": [
        {
          "internalType": "address",
          "name": "",
          "type": "address"
        }
      ],
      "stateMutability": "view",
      "type": "function",
      "constant": true
    },
    {
      "inputs": [],
      "name": "name",
      "outputs": [
        {
          "internalType": "string",
          "name": "",
          "type": "string"
        }
      ],
      "stateMutability": "view",
      "type": "function",
      "constant": true
    },
    {
      "inputs": [],
      "name": "owner",
      "outputs": [
        {
          "internalType": "address",
          "name": "",
          "type": "address"
        }
      ],
      "stateMutability": "view",
      "type": "function",
      "constant": true
    },
    {
      "inputs": [],
      "name": "symbol",
      "outputs": [
        {
          "internalType": "string",
          "name": "",
          "type": "string"
        }
      ],
      "stateMutability": "view",
      "type": "function",
      "constant": true
    },
    {
      "inputs": [],
      "name": "totalSupply",
      "outputs": [
        {
          "internalType": "uint256",
          "name": "",
          "type": "uint256"
        }
      ],
      "stateMutability": "view",
      "type": "function",
      "constant": true
    },
    {
      "inputs": [
        {
          "internalType": "address",
          "name": "to",
          "type": "address"
        },
        {
          "internalType": "uint256",
          "name": "amount",
          "type": "uint256"
        }
      ],
      "name": "transfer",
      "outputs": [
        {
          "internalType": "bool",
          "name": "",
          "type": "bool"
        }
      ],
      "stateMutability": "nonpayable",
      "type": "function"
    },
    {
      "inputs": [
        {
          "internalType": "address",
          "name": "from",
          "type": "address"
        },
        {
          "internalType": "address",
          "name": "to",
          "type": "address"
        },
        {
          "internalType": "uint256",
          "name": "amount",
          "type": "uint256"
        }
      ],
      "name": "transferFrom",
      "outputs": [
        {
          "internalType": "bool",
          "name": "",
          "type": "bool"
        }
      ],
      "stateMutability": "nonpayable",
      "type": "function"
    },
    {
      "inputs": [
        {
          "internalType": "address",
          "name": "rushBank",
          "type": "address"
        }
      ],
      "name": "passMinterRole",
      "outputs": [
        {
          "internalType": "bool",
          "name": "",
          "type": "bool"
        }
      ],
      "stateMutability": "nonpayable",
      "type": "function"
    },
    {
      "inputs": [
        {
          "internalType": "address",
          "name": "account",
          "type": "address"
        },
        {
          "internalType": "uint256",
          "name": "amount",
          "type": "uint256"
        }
      ],
      "name": "mint",
      "outputs": [],
      "stateMutability": "nonpayable",
      "type": "function"
    }
  ],
  "bytecode": "0x60806040523480156200001157600080fd5b506040518060400160405280600a81526020017f5275736820546f6b656e000000000000000000000000000000000000000000008152506040518060400160405280600381526020017f525354000000000000000000000000000000000000000000000000000000000081525081600390816200008f9190620003a6565b508060049081620000a19190620003a6565b50505033600660006101000a81548173ffffffffffffffffffffffffffffffffffffffff021916908373ffffffffffffffffffffffffffffffffffffffff16021790555033600560006101000a81548173ffffffffffffffffffffffffffffffffffffffff021916908373ffffffffffffffffffffffffffffffffffffffff1602179055506200048d565b600081519050919050565b7f4e487b7100000000000000000000000000000000000000000000000000000000600052604160045260246000fd5b7f4e487b7100000000000000000000000000000000000000000000000000000000600052602260045260246000fd5b60006002820490506001821680620001ae57607f821691505b602082108103620001c457620001c362000166565b5b50919050565b60008190508160005260206000209050919050565b60006020601f8301049050919050565b600082821b905092915050565b6000600883026200022e7fffffffffffffffffffffffffffffffffffffffffffffffffffffffffffffffff82620001ef565b6200023a8683620001ef565b95508019841693508086168417925050509392505050565b6000819050919050565b6000819050919050565b600062000287620002816200027b8462000252565b6200025c565b62000252565b9050919050565b6000819050919050565b620002a38362000266565b620002bb620002b2826200028e565b848454620001fc565b825550505050565b600090565b620002d2620002c3565b620002df81848462000298565b505050565b5b818110156200030757620002fb600082620002c8565b600181019050620002e5565b5050565b601f82111562000356576200032081620001ca565b6200032b84620001df565b810160208510156200033b578190505b620003536200034a85620001df565b830182620002e4565b50505b505050565b600082821c905092915050565b60006200037b600019846008026200035b565b1980831691505092915050565b600062000396838362000368565b9150826002028217905092915050565b620003b1826200012c565b67ffffffffffffffff811115620003cd57620003cc62000137565b5b620003d9825462000195565b620003e68282856200030b565b600060209050601f8311600181146200041e576000841562000409578287015190505b62000415858262000388565b86555062000485565b601f1984166200042e86620001ca565b60005b82811015620004585784890151825560018201915060208501945060208101905062000431565b8683101562000478578489015162000474601f89168262000368565b8355505b6001600288020188555050505b505050505050565b611a3d806200049d6000396000f3fe608060405234801561001057600080fd5b50600436106100f55760003560e01c806340c10f1911610097578063a457c2d711610066578063a457c2d71461028a578063a9059cbb146102ba578063d7fc5b15146102ea578063dd62ed3e1461031a576100f5565b806340c10f191461020257806370a082311461021e5780638da5cb5b1461024e57806395d89b411461026c576100f5565b806318160ddd116100d357806318160ddd1461016657806323b872dd14610184578063313ce567146101b457806339509351146101d2576100f5565b806306fdde03146100fa5780630754617214610118578063095ea7b314610136575b600080fd5b61010261034a565b60405161010f9190611066565b60405180910390f35b6101206103dc565b60405161012d91906110c9565b60405180910390f35b610150600480360381019061014b919061114b565b610402565b60405161015d91906111a6565b60405180910390f35b61016e610425565b60405161017b91906111d0565b60405180910390f35b61019e600480360381019061019991906111eb565b61042f565b6040516101ab91906111a6565b60405180910390f35b6101bc61045e565b6040516101c9919061125a565b60405180910390f35b6101ec60048036038101906101e7919061114b565b610467565b6040516101f991906111a6565b60405180910390f35b61021c6004803603810190610217919061114b565b61049e565b005b61023860048036038101906102339190611275565b61063d565b60405161024591906111d0565b60405180910390f35b610256610685565b60405161026391906110c9565b60405180910390f35b6102746106ab565b6040516102819190611066565b60405180910390f35b6102a4600480360381019061029f919061114b565b61073d565b6040516102b191906111a6565b60405180910390f35b6102d460048036038101906102cf919061114b565b6107b4565b6040516102e191906111a6565b60405180910390f35b61030460048036038101906102ff9190611275565b6107d7565b60405161031191906111a6565b60405180910390f35b610334600480360381019061032f91906112a2565b610901565b60405161034191906111d0565b60405180910390f35b60606003805461035990611311565b80601f016020809104026020016040519081016040528092919081815260200182805461038590611311565b80156103d25780601f106103a7576101008083540402835291602001916103d2565b820191906000526020600020905b8154815290600101906020018083116103b557829003601f168201915b5050505050905090565b600560009054906101000a900473ffffffffffffffffffffffffffffffffffffffff1681565b60008061040d610988565b905061041a818585610990565b600191505092915050565b6000600254905090565b60008061043a610988565b9050610447858285610b59565b610452858585610be5565b60019150509392505050565b60006012905090565b600080610472610988565b90506104938185856104848589610901565b61048e9190611371565b610990565b600191505092915050565b81600073ffffffffffffffffffffffffffffffffffffffff168173ffffffffffffffffffffffffffffffffffffffff160361050e576040517f08c379a000000000000000000000000000000000000000000000000000000000815260040161050590611413565b60405180910390fd5b600560009054906101000a900473ffffffffffffffffffffffffffffffffffffffff1673ffffffffffffffffffffffffffffffffffffffff163373ffffffffffffffffffffffffffffffffffffffff161461059e576040517f08c379a00000000000000000000000000000000000000000000000000000000081526004016105959061147f565b60405180910390fd5b600560009054906101000a900473ffffffffffffffffffffffffffffffffffffffff1673ffffffffffffffffffffffffffffffffffffffff163373ffffffffffffffffffffffffffffffffffffffff161461062e576040517f08c379a000000000000000000000000000000000000000000000000000000000815260040161062590611511565b60405180910390fd5b6106388383610e64565b505050565b60008060008373ffffffffffffffffffffffffffffffffffffffff1673ffffffffffffffffffffffffffffffffffffffff168152602001908152602001600020549050919050565b600660009054906101000a900473ffffffffffffffffffffffffffffffffffffffff1681565b6060600480546106ba90611311565b80601f01602080910402602001604051908101604052809291908181526020018280546106e690611311565b80156107335780601f1061070857610100808354040283529160200191610733565b820191906000526020600020905b81548152906001019060200180831161071657829003601f168201915b5050505050905090565b600080610748610988565b905060006107568286610901565b90508381101561079b576040517f08c379a0000000000000000000000000000000000000000000000000000000008152600401610792906115a3565b60405180910390fd5b6107a88286868403610990565b60019250505092915050565b6000806107bf610988565b90506107cc818585610be5565b600191505092915050565b6000600560009054906101000a900473ffffffffffffffffffffffffffffffffffffffff1673ffffffffffffffffffffffffffffffffffffffff163373ffffffffffffffffffffffffffffffffffffffff1614610869576040517f08c379a000000000000000000000000000000000000000000000000000000000815260040161086090611635565b60405180910390fd5b81600560006101000a81548173ffffffffffffffffffffffffffffffffffffffff021916908373ffffffffffffffffffffffffffffffffffffffff1602179055503373ffffffffffffffffffffffffffffffffffffffff167f3b0007eb941cf645526cbb3a4fdaecda9d28ce4843167d9263b536a1f1edc0f6836040516108f091906110c9565b60405180910390a260019050919050565b6000600160008473ffffffffffffffffffffffffffffffffffffffff1673ffffffffffffffffffffffffffffffffffffffff16815260200190815260200160002060008373ffffffffffffffffffffffffffffffffffffffff1673ffffffffffffffffffffffffffffffffffffffff16815260200190815260200160002054905092915050565b600033905090565b600073ffffffffffffffffffffffffffffffffffffffff168373ffffffffffffffffffffffffffffffffffffffff16036109ff576040517f08c379a00000000000000000000000000000000000000000000000000000000081526004016109f6906116c7565b60405180910390fd5b600073ffffffffffffffffffffffffffffffffffffffff168273ffffffffffffffffffffffffffffffffffffffff1603610a6e576040517f08c379a0000000000000000000000000000000000000000000000000000000008152600401610a6590611759565b60405180910390fd5b80600160008573ffffffffffffffffffffffffffffffffffffffff1673ffffffffffffffffffffffffffffffffffffffff16815260200190815260200160002060008473ffffffffffffffffffffffffffffffffffffffff1673ffffffffffffffffffffffffffffffffffffffff168152602001908152602001600020819055508173ffffffffffffffffffffffffffffffffffffffff168373ffffffffffffffffffffffffffffffffffffffff167f8c5be1e5ebec7d5bd14f71427d1e84f3dd0314c0f7b2291e5b200ac8c7c3b92583604051610b4c91906111d0565b60405180910390a3505050565b6000610b658484610901565b90507fffffffffffffffffffffffffffffffffffffffffffffffffffffffffffffffff8114610bdf5781811015610bd1576040517f08c379a0000000000000000000000000000000000000000000000000000000008152600401610bc8906117c5565b60405180910390fd5b610bde8484848403610990565b5b50505050565b600073ffffffffffffffffffffffffffffffffffffffff168373ffffffffffffffffffffffffffffffffffffffff1603610c54576040517f08c379a0000000000000000000000000000000000000000000000000000000008152600401610c4b90611857565b60405180910390fd5b600073ffffffffffffffffffffffffffffffffffffffff168273ffffffffffffffffffffffffffffffffffffffff1603610cc3576040517f08c379a0000000000000000000000000000000000000000000000000000000008152600401610cba906118e9565b60405180910390fd5b610cce838383610fc3565b60008060008573ffffffffffffffffffffffffffffffffffffffff1673ffffffffffffffffffffffffffffffffffffffff16815260200190815260200160002054905081811015610d54576040517f08c379a0000000000000000000000000000000000000000000000000000000008152600401610d4b9061197b565b60405180910390fd5b8181036000808673ffffffffffffffffffffffffffffffffffffffff1673ffffffffffffffffffffffffffffffffffffffff16815260200190815260200160002081905550816000808573ffffffffffffffffffffffffffffffffffffffff1673ffffffffffffffffffffffffffffffffffffffff1681526020019081526020016000206000828254610de79190611371565b925050819055508273ffffffffffffffffffffffffffffffffffffffff168473ffffffffffffffffffffffffffffffffffffffff167fddf252ad1be2c89b69c2b068fc378daa952ba7f163c4a11628f55a4df523b3ef84604051610e4b91906111d0565b60405180910390a3610e5e848484610fc8565b50505050565b600073ffffffffffffffffffffffffffffffffffffffff168273ffffffffffffffffffffffffffffffffffffffff1603610ed3576040517f08c379a0000000000000000000000000000000000000000000000000000000008152600401610eca906119e7565b60405180910390fd5b610edf60008383610fc3565b8060026000828254610ef19190611371565b92505081905550806000808473ffffffffffffffffffffffffffffffffffffffff1673ffffffffffffffffffffffffffffffffffffffff1681526020019081526020016000206000828254610f469190611371565b925050819055508173ffffffffffffffffffffffffffffffffffffffff16600073ffffffffffffffffffffffffffffffffffffffff167fddf252ad1be2c89b69c2b068fc378daa952ba7f163c4a11628f55a4df523b3ef83604051610fab91906111d0565b60405180910390a3610fbf60008383610fc8565b5050565b505050565b505050565b600081519050919050565b600082825260208201905092915050565b60005b83811015611007578082015181840152602081019050610fec565b83811115611016576000848401525b50505050565b6000601f19601f8301169050919050565b600061103882610fcd565b6110428185610fd8565b9350611052818560208601610fe9565b61105b8161101c565b840191505092915050565b60006020820190508181036000830152611080818461102d565b905092915050565b600073ffffffffffffffffffffffffffffffffffffffff82169050919050565b60006110b382611088565b9050919050565b6110c3816110a8565b82525050565b60006020820190506110de60008301846110ba565b92915050565b600080fd5b6110f2816110a8565b81146110fd57600080fd5b50565b60008135905061110f816110e9565b92915050565b6000819050919050565b61112881611115565b811461113357600080fd5b50565b6000813590506111458161111f565b92915050565b60008060408385031215611162576111616110e4565b5b600061117085828601611100565b925050602061118185828601611136565b9150509250929050565b60008115159050919050565b6111a08161118b565b82525050565b60006020820190506111bb6000830184611197565b92915050565b6111ca81611115565b82525050565b60006020820190506111e560008301846111c1565b92915050565b600080600060608486031215611204576112036110e4565b5b600061121286828701611100565b935050602061122386828701611100565b925050604061123486828701611136565b9150509250925092565b600060ff82169050919050565b6112548161123e565b82525050565b600060208201905061126f600083018461124b565b92915050565b60006020828403121561128b5761128a6110e4565b5b600061129984828501611100565b91505092915050565b600080604083850312156112b9576112b86110e4565b5b60006112c785828601611100565b92505060206112d885828601611100565b9150509250929050565b7f4e487b7100000000000000000000000000000000000000000000000000000000600052602260045260246000fd5b6000600282049050600182168061132957607f821691505b60208210810361133c5761133b6112e2565b5b50919050565b7f4e487b7100000000000000000000000000000000000000000000000000000000600052601160045260246000fd5b600061137c82611115565b915061138783611115565b9250827fffffffffffffffffffffffffffffffffffffffffffffffffffffffffffffffff038211156113bc576113bb611342565b5b828201905092915050565b7f41646472657373206973206e6f742076616c69642e0000000000000000000000600082015250565b60006113fd601583610fd8565b9150611408826113c7565b602082019050919050565b6000602082019050818103600083015261142c816113f0565b9050919050565b7f4f6e6c79206f776e65722063616e2063616c6c20746869732e00000000000000600082015250565b6000611469601983610fd8565b915061147482611433565b602082019050919050565b600060208201905081810360008301526114988161145c565b9050919050565b7f4572726f722c206d73672e73656e64657220646f6573206e6f7420686176652060008201527f6d696e74657220726f6c65000000000000000000000000000000000000000000602082015250565b60006114fb602b83610fd8565b91506115068261149f565b604082019050919050565b6000602082019050818103600083015261152a816114ee565b9050919050565b7f45524332303a2064656372656173656420616c6c6f77616e63652062656c6f7760008201527f207a65726f000000000000000000000000000000000000000000000000000000602082015250565b600061158d602583610fd8565b915061159882611531565b604082019050919050565b600060208201905081810360008301526115bc81611580565b9050919050565b7f4572726f722c206f6e6c79206f776e65722063616e206368616e67652070617360008201527f73206d696e74657220726f6c6500000000000000000000000000000000000000602082015250565b600061161f602d83610fd8565b915061162a826115c3565b604082019050919050565b6000602082019050818103600083015261164e81611612565b9050919050565b7f45524332303a20617070726f76652066726f6d20746865207a65726f2061646460008201527f7265737300000000000000000000000000000000000000000000000000000000602082015250565b60006116b1602483610fd8565b91506116bc82611655565b604082019050919050565b600060208201905081810360008301526116e0816116a4565b9050919050565b7f45524332303a20617070726f766520746f20746865207a65726f20616464726560008201527f7373000000000000000000000000000000000000000000000000000000000000602082015250565b6000611743602283610fd8565b915061174e826116e7565b604082019050919050565b6000602082019050818103600083015261177281611736565b9050919050565b7f45524332303a20696e73756666696369656e7420616c6c6f77616e6365000000600082015250565b60006117af601d83610fd8565b91506117ba82611779565b602082019050919050565b600060208201905081810360008301526117de816117a2565b9050919050565b7f45524332303a207472616e736665722066726f6d20746865207a65726f20616460008201527f6472657373000000000000000000000000000000000000000000000000000000602082015250565b6000611841602583610fd8565b915061184c826117e5565b604082019050919050565b6000602082019050818103600083015261187081611834565b9050919050565b7f45524332303a207472616e7366657220746f20746865207a65726f206164647260008201527f6573730000000000000000000000000000000000000000000000000000000000602082015250565b60006118d3602383610fd8565b91506118de82611877565b604082019050919050565b60006020820190508181036000830152611902816118c6565b9050919050565b7f45524332303a207472616e7366657220616d6f756e742065786365656473206260008201527f616c616e63650000000000000000000000000000000000000000000000000000602082015250565b6000611965602683610fd8565b915061197082611909565b604082019050919050565b6000602082019050818103600083015261199481611958565b9050919050565b7f45524332303a206d696e7420746f20746865207a65726f206164647265737300600082015250565b60006119d1601f83610fd8565b91506119dc8261199b565b602082019050919050565b60006020820190508181036000830152611a00816119c4565b905091905056fea2646970667358221220384eee7d0ed47255831e020c5948d44d6293e51eab01348be15cf62284b6b47464736f6c634300080f0033",
  "immutableReferences": {},
  "source": "// SPDX-License-Identifier: MIT\npragma solidity ^0.8.13;\n\nimport \"@openzeppelin/contracts/token/ERC20/ERC20.sol\";\n\ncontract RushToken is ERC20 {\n  address public minter;\n  address public owner;\n\n\n  modifier validAddress(address _addr) {\n    require(_addr != address(0), \"Address is not valid.\");\n    _;\n  }\n  modifier onlyMinter() {\n    require(msg.sender == minter, \"Only owner can call this.\");\n\n    _;\n  }\n\n  event MinterChanged(address indexed from, address to);\n\n  constructor() ERC20(\"Rush Token\", \"RST\") {\n    owner = msg.sender;\n    minter = msg.sender;\n  }\n\n\n  function passMinterRole(address rushBank) public returns (bool) {\n  \trequire(msg.sender==minter, 'Error, only owner can change pass minter role');\n  \tminter = rushBank;\n\n    emit MinterChanged(msg.sender, rushBank);\n    return true;\n  }\n\n  function mint(address account, uint256 amount) public validAddress(account) onlyMinter {\n\t\trequire(msg.sender==minter, 'Error, msg.sender does not have minter role');\n\t\t_mint(account, amount);\n\t}\n\n}",
  "sourcePath": "/Users/onur/Desktop/token-locker/contracts/RushToken.sol",
  "compiler": {
    "name": "solc",
    "version": "0.8.15+commit.e14f2714.Emscripten.clang"
  },
  "schemaVersion": "3.4.8",
  "updatedAt": "2022-07-26T17:13:36.385Z",
  "networkType": "ethereum",
  "devdoc": {
    "kind": "dev",
    "methods": {
      "allowance(address,address)": {
        "details": "See {IERC20-allowance}."
      },
      "approve(address,uint256)": {
        "details": "See {IERC20-approve}. NOTE: If `amount` is the maximum `uint256`, the allowance is not updated on `transferFrom`. This is semantically equivalent to an infinite approval. Requirements: - `spender` cannot be the zero address."
      },
      "balanceOf(address)": {
        "details": "See {IERC20-balanceOf}."
      },
      "decimals()": {
        "details": "Returns the number of decimals used to get its user representation. For example, if `decimals` equals `2`, a balance of `505` tokens should be displayed to a user as `5.05` (`505 / 10 ** 2`). Tokens usually opt for a value of 18, imitating the relationship between Ether and Wei. This is the value {ERC20} uses, unless this function is overridden; NOTE: This information is only used for _display_ purposes: it in no way affects any of the arithmetic of the contract, including {IERC20-balanceOf} and {IERC20-transfer}."
      },
      "decreaseAllowance(address,uint256)": {
        "details": "Atomically decreases the allowance granted to `spender` by the caller. This is an alternative to {approve} that can be used as a mitigation for problems described in {IERC20-approve}. Emits an {Approval} event indicating the updated allowance. Requirements: - `spender` cannot be the zero address. - `spender` must have allowance for the caller of at least `subtractedValue`."
      },
      "increaseAllowance(address,uint256)": {
        "details": "Atomically increases the allowance granted to `spender` by the caller. This is an alternative to {approve} that can be used as a mitigation for problems described in {IERC20-approve}. Emits an {Approval} event indicating the updated allowance. Requirements: - `spender` cannot be the zero address."
      },
      "name()": {
        "details": "Returns the name of the token."
      },
      "symbol()": {
        "details": "Returns the symbol of the token, usually a shorter version of the name."
      },
      "totalSupply()": {
        "details": "See {IERC20-totalSupply}."
      },
      "transfer(address,uint256)": {
        "details": "See {IERC20-transfer}. Requirements: - `to` cannot be the zero address. - the caller must have a balance of at least `amount`."
      },
      "transferFrom(address,address,uint256)": {
        "details": "See {IERC20-transferFrom}. Emits an {Approval} event indicating the updated allowance. This is not required by the EIP. See the note at the beginning of {ERC20}. NOTE: Does not update the allowance if the current allowance is the maximum `uint256`. Requirements: - `from` and `to` cannot be the zero address. - `from` must have a balance of at least `amount`. - the caller must have allowance for ``from``'s tokens of at least `amount`."
      }
    },
    "version": 1
  },
  "userdoc": {
    "kind": "user",
    "methods": {},
    "version": 1
  }
}