{
  "contractName": "RushBank",
  "abi": [
    {
      "inputs": [
        {
          "internalType": "contract RushToken",
          "name": "_token",
          "type": "address"
        }
      ],
      "stateMutability": "nonpayable",
      "type": "constructor"
    },
    {
      "inputs": [],
      "name": "maxMintAmount",
      "outputs": [
        {
          "internalType": "uint256",
          "name": "",
          "type": "uint256"
        }
      ],
      "stateMutability": "view",
      "type": "function",
      "constant": true
    },
    {
      "inputs": [],
      "name": "mintAmount",
      "outputs": [
        {
          "internalType": "uint256",
          "name": "",
          "type": "uint256"
        }
      ],
      "stateMutability": "view",
      "type": "function",
      "constant": true
    },
    {
      "inputs": [
        {
          "internalType": "address",
          "name": "_to",
          "type": "address"
        }
      ],
      "name": "mintToken",
      "outputs": [],
      "stateMutability": "nonpayable",
      "type": "function"
    },
    {
      "inputs": [
        {
          "internalType": "uint256",
          "name": "_mintAmount",
          "type": "uint256"
        }
      ],
      "name": "changeMintAmount",
      "outputs": [],
      "stateMutability": "nonpayable",
      "type": "function"
    },
    {
      "inputs": [
        {
          "internalType": "uint256",
          "name": "_maxMintAmount",
          "type": "uint256"
        }
      ],
      "name": "changeMaxMintAmount",
      "outputs": [],
      "stateMutability": "nonpayable",
      "type": "function"
    }
  ],
  "bytecode": "0x608060405234801561001057600080fd5b506040516109c53803806109c5833981810160405281019061003291906100ff565b61271060018190555061c350600281905550806000806101000a81548173ffffffffffffffffffffffffffffffffffffffff021916908373ffffffffffffffffffffffffffffffffffffffff1602179055505061012c565b600080fd5b600073ffffffffffffffffffffffffffffffffffffffff82169050919050565b60006100ba8261008f565b9050919050565b60006100cc826100af565b9050919050565b6100dc816100c1565b81146100e757600080fd5b50565b6000815190506100f9816100d3565b92915050565b6000602082840312156101155761011461008a565b5b6000610123848285016100ea565b91505092915050565b61088a8061013b6000396000f3fe608060405234801561001057600080fd5b50600436106100575760003560e01c806301173a741461005c578063239c70ae146100785780635356d4cd146100965780635a2bcc18146100b25780637d5092c9146100d0575b600080fd5b61007660048036038101906100719190610548565b6100ec565b005b6100806102cd565b60405161008d919061058e565b60405180910390f35b6100b060048036038101906100ab91906105d5565b6102d3565b005b6100ba6103d9565b6040516100c7919061058e565b60405180910390f35b6100ea60048036038101906100e591906105d5565b6103df565b005b80600073ffffffffffffffffffffffffffffffffffffffff168173ffffffffffffffffffffffffffffffffffffffff160361015c576040517f08c379a00000000000000000000000000000000000000000000000000000000081526004016101539061065f565b60405180910390fd5b60025460008054906101000a900473ffffffffffffffffffffffffffffffffffffffff1673ffffffffffffffffffffffffffffffffffffffff166370a08231846040518263ffffffff1660e01b81526004016101b8919061068e565b602060405180830381865afa1580156101d5573d6000803e3d6000fd5b505050506040513d601f19601f820116820180604052508101906101f991906106be565b111561023a576040517f08c379a00000000000000000000000000000000000000000000000000000000081526004016102319061075d565b60405180910390fd5b60008054906101000a900473ffffffffffffffffffffffffffffffffffffffff1673ffffffffffffffffffffffffffffffffffffffff166340c10f19836001546040518363ffffffff1660e01b815260040161029792919061077d565b600060405180830381600087803b1580156102b157600080fd5b505af11580156102c5573d6000803e3d6000fd5b505050505050565b60025481565b60008054906101000a900473ffffffffffffffffffffffffffffffffffffffff1673ffffffffffffffffffffffffffffffffffffffff16638da5cb5b6040518163ffffffff1660e01b8152600401602060405180830381865afa15801561033e573d6000803e3d6000fd5b505050506040513d601f19601f8201168201806040525081019061036291906107bb565b73ffffffffffffffffffffffffffffffffffffffff163373ffffffffffffffffffffffffffffffffffffffff16146103cf576040517f08c379a00000000000000000000000000000000000000000000000000000000081526004016103c690610834565b60405180910390fd5b8060028190555050565b60015481565b60008054906101000a900473ffffffffffffffffffffffffffffffffffffffff1673ffffffffffffffffffffffffffffffffffffffff16638da5cb5b6040518163ffffffff1660e01b8152600401602060405180830381865afa15801561044a573d6000803e3d6000fd5b505050506040513d601f19601f8201168201806040525081019061046e91906107bb565b73ffffffffffffffffffffffffffffffffffffffff163373ffffffffffffffffffffffffffffffffffffffff16146104db576040517f08c379a00000000000000000000000000000000000000000000000000000000081526004016104d290610834565b60405180910390fd5b8060018190555050565b600080fd5b600073ffffffffffffffffffffffffffffffffffffffff82169050919050565b6000610515826104ea565b9050919050565b6105258161050a565b811461053057600080fd5b50565b6000813590506105428161051c565b92915050565b60006020828403121561055e5761055d6104e5565b5b600061056c84828501610533565b91505092915050565b6000819050919050565b61058881610575565b82525050565b60006020820190506105a3600083018461057f565b92915050565b6105b281610575565b81146105bd57600080fd5b50565b6000813590506105cf816105a9565b92915050565b6000602082840312156105eb576105ea6104e5565b5b60006105f9848285016105c0565b91505092915050565b600082825260208201905092915050565b7f41646472657373206973206e6f742076616c69642e0000000000000000000000600082015250565b6000610649601583610602565b915061065482610613565b602082019050919050565b600060208201905081810360008301526106788161063c565b9050919050565b6106888161050a565b82525050565b60006020820190506106a3600083018461067f565b92915050565b6000815190506106b8816105a9565b92915050565b6000602082840312156106d4576106d36104e5565b5b60006106e2848285016106a9565b91505092915050565b7f4572726f722c206d6178696d756d206d696e7420616d6f756e7420697320657860008201527f6365656465642e00000000000000000000000000000000000000000000000000602082015250565b6000610747602783610602565b9150610752826106eb565b604082019050919050565b600060208201905081810360008301526107768161073a565b9050919050565b6000604082019050610792600083018561067f565b61079f602083018461057f565b9392505050565b6000815190506107b58161051c565b92915050565b6000602082840312156107d1576107d06104e5565b5b60006107df848285016107a6565b91505092915050565b7f4f6e6c79206f776e65722063616e2063616c6c20746869732e00000000000000600082015250565b600061081e601983610602565b9150610829826107e8565b602082019050919050565b6000602082019050818103600083015261084d81610811565b905091905056fea2646970667358221220422726a766aefe9516de80f36c2e3e0b29ee71c78c720109f74ae24a25ad0e9464736f6c634300080f0033",
  "immutableReferences": {},
  "source": "// SPDX-License-Identifier: MIT\npragma solidity ^0.8.13;\n\nimport \"./RushToken.sol\";\n\ncontract RushBank {\n\n  modifier onlyTokenOwner() {\n    require(msg.sender == token.owner(), \"Only owner can call this.\");\n\n    _;\n  }\n\n  modifier validAddress(address _addr) {\n    require(_addr != address(0), \"Address is not valid.\");\n    _;\n  }\n  \n  RushToken private token;\n\n  uint public mintAmount;\n  uint public maxMintAmount;\n\n\n  constructor(RushToken _token) {\n    mintAmount = 10000;\n    maxMintAmount = 50000;\n    token = _token;\n  }\n\n  function mintToken(address _to) public validAddress(_to) {\n    require(token.balanceOf(_to) <= maxMintAmount, 'Error, maximum mint amount is exceeded.');\n    token.mint(_to, mintAmount);\n  }\n\n  function changeMintAmount(uint _mintAmount) onlyTokenOwner public {\n    mintAmount = _mintAmount;\n  }\n\n  function changeMaxMintAmount(uint _maxMintAmount) onlyTokenOwner public {\n    maxMintAmount = _maxMintAmount;\n  }\n\n}",
  "sourcePath": "/Users/onur/Desktop/token-locker/contracts/RushBank.sol",
  "compiler": {
    "name": "solc",
    "version": "0.8.15+commit.e14f2714.Emscripten.clang"
  },
  "schemaVersion": "3.4.8",
  "updatedAt": "2022-07-26T17:13:36.389Z",
  "networkType": "ethereum",
  "devdoc": {
    "kind": "dev",
    "methods": {},
    "version": 1
  },
  "userdoc": {
    "kind": "user",
    "methods": {},
    "version": 1
  }
}